:020000042001D9
:100000009711FF5F9381818B970200009382820595
:100010007390523093020000638402007350107C8E
:100020001701FFDF130101FE9700FFDF938080FDC2
:10003000638300008290732540F181450146812051
:100040009700FFDF938000FC63830000829097029B
:1000500000009382C2007390523003230000F5BF6A
:10006000F322203473231034F3233034D5BF82803D
:10007000411122C6000801003244410182800684F9
:100080009711FF5F93818183138181CB8142130399
:1000900000406385A2001A918502E5BF137101FF3C
:1000A0009302000063155508971200009382826A3C
:1000B0001703FF5F130303F593838182638C620050
:1000C000635A730003A5020091022320A3001103C9
:1000D000E34A73FE971200009382C2671703FFE79B
:1000E000130343F29703FFE79383C3F1638C62002A
:1000F000635A730003A5020091022320A300110399
:10010000E34A73FE0F100000138381829383818B77
:1001100063577300232003001103E34D73FE11C2E4
:1001200002961705000013050512CD20B922893764
:10013000F32710303707010013078702F98F89CBA7
:10014000F32700300967D98F739007307350300060
:10015000054597150000938525D517160000130651
:10016000E6D429204D28A28082808280411106C2D7
:10017000F32240F113030000638562007300501006
:0A018000F5BF292092404101828062
:10018C00411106C622C400084D45192881454D452C
:10019C00812081473E85B24022444101828000008B
:1001AC00411106C622C426C24AC00008B72201105B
:1001BC0003A38200CD43054E331E7E003363C3017F
:1001CC0023A46200024992442244B240410182803D
:1001DC00411106C622C426C24AC00008B72201102B
:1001EC0003A3C200054E331EAE003363C30123A626
:1001FC006200024992442244B240410182800000D4
:10020C00AA85814601460145C1A8411122C406C6F2
:10021C0097070000938747142A8499C381451D2AA8
:10022C009707FF5F9387C7E888431C5591C3829754
:10023C002285EF0050454111971700009387C75056
:10024C0022C417140000130424501D8C26C206C6A9
:10025C000984BE8411E4B24022449244410182805C
:10026C007D1493172400A6979C438297E5B7411100
:10027C00971700009387C74C22C41714000013046F
:10028C00244C1D8C26C24AC006C6098481443E8972
:10029C0063968402971700009387874A171400000F
:1002AC001304844A1D8C098481443E89639F840015
:1002BC00B240224492440249410182809397240027
:1002CC00CA979C4385048297E1B793972400CA97F9
:1002DC009C4385048297D9BF938781829C432A8E45
:1002EC0099EF1387C18223A4E1821705FFDF130561
:1002FC00A5D0BA8709C51C4123AAF18ABA87D8436D
:10030C007D487D556347E804630E0E0203A88708F9
:10031C006301080493182700C29823A0C800032384
:10032C00081005463316E6003363C300232068101B
:10033C0023A0D80889466317DE0083264810558E03
:10034C002322C810930617000A07D4C3BA978CC788
:10035C0001458280797152CC56CA5AC85EC606D6FF
:10036C0022D426D24AD04ECE62C42A8B2E8A938AAD
:10037C008182854B03A40A0011C844408329840858
:10038C001389F4FF8A04A294635E0900B2502254CC
:10039C0092540259F249624AD24A424BB24B224C15
:1003AC0045618280630E0A00639509007D19F11482
:1003BC00E1BF93172900CE9783A70708E39847FF5F
:1003CC005840DC407D176318270323222401F9DFF2
:1003DC00032C44006388090083A6091033972B0172
:1003EC00F98E89EE8297584083A70A00E31487F9A7
:1003FC00E30EF4FA41B723A20400D1BF93162900EF
:10040C00CE968C4283A64910758F01E75A85829748
:10041C00D9BF2E858297C1BF011122CE0010232691
:10042C00A4FEB70700809387C7063E85724405611A
:10043C008280011122CE00102326A4FEB707008073
:10044C009387C70B3E85724405618280011122CED1
:10045C0000102326A4FE81473E85724405618280EC
:10046C00411122C60008938781813E8532444101A7
:10047C008280397106DE22DC80002326A4FC032551
:10048C00C4FC593F2326A4FE0325C4FCC1372324F6
:10049C00A4FE0325C4FC713F2322A4FED1372320E4
:1004AC00A4FE832704FE9C43832584FE032544FE7F
:1004BC008297232EA4FC0327C4FDB7070040F98FB5
:1004CC0099E3FD5725A08327C4FD63C40700FD579E
:1004DC0031A80325C4FEEF005008AA873E87832766
:1004EC00C4FD93F7F7038507B357F7023E85F25027
:1004FC00625421618280011106CE22CC0010232689
:10050C00A4FE2324B4FE0325C4FEA537AA873E858A
:10051C00F240624405618280011122CE0010232634
:10052C00A4FEB7070080938707063E8572440561D9
:10053C008280011122CE00102326A4FEB707008072
:10054C009387C70B3E85724405618280011122CED0
:10055C0000102326A4FE91473E85724405618280DB
:10056C00411122C60008938781813E8532444101A6
:10057C008280397106DE22DC80002326A4FC032550
:10058C00C4FC593F2326A4FE0325C4FCC1372324F5
:10059C00A4FE0325C4FC713F2322A4FED1372320E3
:1005AC00A4FE832704FE9C43832584FE032544FE7E
:1005BC008297232EA4FC0327C4FDB7070040F98FB4
:1005CC0099E3FD5721A88327C4FD63C40700FD5799
:1005DC0031A00325C4FEEF004078AA873E85F25077
:1005EC00625421618280011106CE22CC0010232698
:1005FC00A4FE2324B4FE0325C4FEA53FAA873E8592
:10060C00F240624405618280011122CE0010232643
:10061C00A4FEB7070080938707093E8572440561E5
:10062C008280011122CE00102326A4FEB707008081
:10063C009387C7093E85724405618280011122CEE1
:10064C0000102326A4FEB70700809387C70B3E85B6
:10065C00724405618280011122CE00102326A4FE73
:10066C00B1473E85724405618280411122C6000863
:10067C00B70700809387C70B3E85324441018280C7
:10068C00411122C60008A1473E85324441018280B7
:10069C00411122C60008B727F400938707403E8516
:1006AC00324441018280411122C60008B7870010F4
:1006BC003E85324441018280411122C60008938755
:1006CC0081813E85324441018280011122CE00108D
:1006DC002326A4FE2324B4FE832784FE9C470327F1
:1006EC00C4FE6369F700832784FEDC470327C4FE3E
:1006FC0063F4E700FD5729A8832784FE98438327DA
:10070C00C4FE3307F702832784FEDC43B357F7029A
:10071C003E85724405618280011106CE22CC001008
:10072C00853F2326A4FE8327C4FE91C7B70700800C
:10073C001385870A31200100F240624405618280F2
:10074C00397106DE22DC80002326A4FC8327C4FC3E
:10075C003E85C13D2326A4FE253F2324A4FE0D3750
:10076C002322A4FE89372320A4FE032704FE83271B
:10077C0044FEBA97232EF4FC8327C4FCDC433E854D
:10078C00692B8327C4FD9843C167F98F91EB8327AD
:10079C00C4FD9843C177FD177D8F8327C4FD98C393
:1007AC008327C4FE91CB8327C4FD9843B70702006F
:1007BC005D8F8327C4FD98C38327C4FC9C43D84317
:1007CC008327C4FC832584FE3E8502978327C4FCC3
:1007DC009C473E8599230100F2506254216182802E
:1007EC001D7186CEA2CC80102326A4FA0325C4FA50
:1007FC000D3D2326A4FE0325C4FA39352324A4FE7B
:10080C000325C4FAB53D2322A4FE0325C4FAB13D49
:10081C002320A4FE0325C4FA3D3D232EA4FC03256E
:10082C00C4FA293D232CA4FC413D232AA4FC832794
:10083C0044FD9C43832544FE032504FE8297232814
:10084C00A4FC832744FD9C438325C4FD032584FD20
:10085C0082972326A4FC032704FDC1677D8FC16703
:10086C006377F700032584FECD29AA87D9A803272F
:10087C0004FDB70702007D8FB70702006365F70020
:10088C008327C4FE19A0832784FE3E85F9212324E7
:10089C00A4FC032704FDB70704007D8FB7070400F1
:1008AC006365F700832784FC69A8832704FD9D8B6F
:1008BC0085072322F4FC832704FD93F7073F9183DC
:1008CC00850786072320F4FC032704FD856793879F
:1008DC0007C07D8F9307F03F63E4E700FD5795A0B9
:1008EC00032704FD8567938707C0F98FA983054704
:1008FC00B317F700232EF4FA032784FC832744FC58
:10090C003347F702832704FC3307F7028327C4FB22
:10091C00B347F702232CF4FA8327C4FC13F7071010
:10092C009307F00F63F5E700832784FB19A80327CF
:10093C0084FB8327C4FC93F7F70385078607B3571B
:10094C00F7023E85F640664425618280397106DEE9
:10095C0022DC80002326A4FC2324B4FCFD57232690
:10096C00F4FEB707008093C7F7FF2324F4FE930728
:10097C0030042322F4FEADA08326C4FC832744FE5E
:10098C0013975700B7170120938787EBBA97BE854B
:10099C003685253B2320A4FE032704FEFD57630C5C
:1009AC00F702032704FE832784FC1D8F9357F7411E
:1009BC003D8FB307F740232EF4FC0327C4FD832798
:1009CC0084FE635AF700832744FE2326F4FE832714
:1009DC00C4FD2324F4FE832744FEFD172322F4FEDA
:1009EC00832744FEE3DA07F88327C4FE3E85F250E2
:1009FC00625421618280011122CE00102326A4FEB4
:100A0C002324B4FE2322C4FE8327C4FE9C4313F785
:100A1C0087FF8327C4FE98C38327C4FE984383278C
:100A2C0044FE9C4B9D8B5D8F8327C4FE98C383270C
:100A3C00C4FE9C4313F7F7C08327C4FE98C38327D7
:100A4C00C4FE9843832744FEDC4B920793F7073F81
:100A5C005D8F8327C4FE98C38327C4FE9843FD771C
:100A6C009387F73F7D8F8327C4FE98C38327C4FEEB
:100A7C009843832744FE9C4F9396A70085679387E2
:100A8C0007C0F58F5D8F8327C4FE98C3832744FE70
:100A9C00DC4F63DB0702832784FE9C4313E70710BC
:100AAC00832784FE98C3832784FE9C4313F707FC9B
:100ABC00832784FE98C3832784FE9C4313E7170087
:100ACC00832784FE98C32DA8832784FE9C4313F7A9
:100ADC00F7EF832784FE98C3832784FE9C4313F788
:100AEC0007FC832784FE98C3832784FE98438327BF
:100AFC0044FEDC4F93F7F7035D8F832784FE98C386
:100B0C008327C4FE9843B707FCFFFD177D8F83270F
:100B1C00C4FE98C301008327C4FE9C43E3DD07FE9B
:100B2C0001007244056182805D7186C6A2C4800892
:100B3C00232EA4FA232CB4FA0325C4FBDD3423267C
:100B4C00A4FE0325C4FBC9342324A4FE0325C4FB43
:100B5C00053E2322A4FE0325C4FBF53C2320A4FE62
:100B6C009936232EA4FC0327C4FD832744FEBA9791
:100B7C00232CF4FC0327C4FD832704FEBA97232AF5
:100B8C00F4FC832784FD9843C167F98F91CB8327AD
:100B9C0084FD9843C177FD177D8F832784FD98C30F
:100BAC00832784FD9843B7070200F98F81C78327F9
:100BBC00C4FE19A0832784FE3E8545222328A4FC6D
:100BCC00032704FDBA878607BA9713D7F7410D8B15
:100BDC00BA9789873E87832784FB63CBE702032779
:100BEC0004FDBA878A07BA9713D7F7410D8BBA97CA
:100BFC0089873E87832784FB634CF700832784FD1A
:100C0C009843B70704005D8F832784FD98C3B1A078
:100C1C00832584FB032504FD153B2326A4FC032715
:100C2C00C4FCFD576302F7028327C4FC13975700DB
:100C3C00B7170120938787EBBA973E86832544FD2F
:100C4C00032584FD4D3B11A8832784FD9843B707EA
:100C5C0004005D8F832784FD98C3832784FD98430C
:100C6C00C1675D8F832784FD98C30325C4FB8D3E2C
:100C7C00AA873E85B640264461618280011106CE6A
:100C8C0022CC001031342326A4FE8325C4FEB707E2
:100C9C0000801385870AED200100F2406244056153
:100CAC008280411122C60008B78700103E8532446D
:100CBC0041018280797106D622D40018232EA4FC1F
:100CCC00232CB4FCF93FAA872326F4FE032784FDCA
:100CDC008327C4FEBA979C433E85B250225445618B
:100CEC008280797106D622D40018232EA4FC232CE2
:100CFC00B4FC232AC4FC7537AA872326F4FE0327E9
:100D0C0084FD8327C4FEBA973E87832744FD1CC30A
:100D1C003E85B250225445618280797106D622D428
:100D2C000018232EA4FC8327C4FD2326F4FE31A82F
:100D3C008327C4FE98438327C4FEDC433E85029779
:100D4C008327C4FE9C472326F4FE8327C4FEEDF3C1
:100D5C000100B250225445618280011106CE22CC92
:100D6C0000102326A4FE8327C4FE9C439C4303252A
:100D7C00C4FE8297AA873E85F24062440561828058
:100D8C00797106D622D40018232EA4FC232CB4FC93
:100D9C008327C4FDDC433E8549378327C4FD9C4330
:100DAC00DC43832584FD0325C4FD82972326A4FE02
:100DBC008327C4FD9C473E858D378327C4FE3E8523
:100DCC00B250225445618280011122CE001023269C
:100DDC00A4FE0100FDBF011122CE00102326A4FEAB
:100DEC000327C4FEB7070080938707066317F70035
:100DFC00B727F4009387074099A00327C4FEB707D1
:100E0C0000809387C7066317F700B7A74A04938738
:100E1C00072035A00327C4FEB707008093878707F8
:100E2C006314F700A16721A80327C4FEB70700804D
:100E3C00938747086314F700A16711A081473E858B
:100E4C00724405618280011106CE22CC001023264B
:100E5C00A4FE0325C4FE4137AA873E85F2406244B6
:100E6C0005618280011106CE22CC00102326A4FE3F
:100E7C002324B4FE0325C4FEF937AA873E85F2402D
:100E8C00624405618280011106CE22CC001023261B
:080E9C00A4FE0325C4FE0D3F76
:100EA400AC0E0120000000006C6962676C6F737304
:100EB400000000000100000020000000001BB7003B
:100EC40000366E01010000001F0000000300000056
:100ED4003F000000010000002000000000366E0109
:100EE400006CDC02030000001F0000000200000090
:100EF4003F0000000100000010000000808D5B0036
:100F0400001BB700000000001F00000003000000E9
:100F14003F0000000100000010000000001BB700AB
:100F240000366E01010000001F00000002000000F6
:100F34003F000000010000001000000000366E01B8
:100F4400006CDC02030000001F000000020000002F
:100F54001F0000000100000008000000808D5B00FD
:100F6400001BB700000000001F0000000300000089
:100F74001F0000000100000008000000001BB70073
:100F840000366E01010000001F0000000200000096
:100F94001F000000010000000800000000366E0180
:100FA400006CDC02030000001F00000002000000CF
:100FB4000F0000000100000004000000808D5B00B1
:100FC400001BB700000000001F0000000300000029
:100FD4000F0000000100000004000000001BB70027
:100FE40000366E01010000001F0000000200000036
:100FF4000F000000010000000400000000366E0134
:10100400006CDC02030000001F000000020000006E
:10101400070000000100000002000000808D5B005A
:10102400001BB700000000001F00000002000000C9
:101034000F0000000100000002000000001BB700C8
:1010440000366E01010000001F00000001000000D6
:101054000F000000010000000200000000366E01D5
:10106400006CDC02030000001F000000010000000F
:10107400070000000200000001000000808D5B00FA
:10108400001BB700000000001F000000010000006A
:10109400070000000200000001000000001BB70070
:1010A40000366E01010000001F0000000100000076
:1010B40003000000020000000100000000366E0181
:1010C400006CDC02030000001F00000003000000AD
:1010D400FFFFFFFF0400000001000000808D5B00A3
:1010E400001BB700000000001F0000000300000008
:1010F400000000000400000001000000001BB70015
:1011040000366E01010000001F0000000300000013
:10111400FFFFFFFF040000000100000000366E0125
:10112400006CDC02030000001F000000020000004D
:10113400FFFFFFFF0600000001000000808D5B0040
:10114400AAC2A20000000000230000000100000069
:10115400020000000600000001000000AAC2A20074
:10116400001BB7000000000017000000030000008F
:10117400FFFFFFFF0600000001000000001BB70096
:101184000024F400010000002F0000000300000010
:10119400FFFFFFFF06000000010000000024F40030
:1011A40080A81201010000001700000002000000E6
:1011B400FFFFFFFF060000000100000080A81201ED
:1011C40055854501020000002300000002000000D4
:1011D400FFFFFFFF0800000001000000808D5B009E
:1011E400001BB700000000001F0000000300000007
:1011F400FFFFFFFF0800000001000000001BB70014
:1012040000366E01010000001F0000000200000013
:10121400FFFFFFFF080000000100000000366E0120
:10122400006CDC02030000001F000000010000004D
:10123400FFFFFFFF0A00000001000000808D5B003B
:10124400007C920000000000270000000300000062
:10125400FFFFFFFF0A00000001000000007C920075
:10126400001BB70000000000130000000200000093
:10127400FFFFFFFF0A00000001000000001BB70091
:1012840000F8240101000000270000000200000013
:10129400FFFFFFFF0A0000000100000000F8240126
:1012A40000366E0101000000130000000100000080
:1012B400FFFFFFFF0A0000000100000000366E017E
:1012C40000F04902030000002700000001000000B4
:1012D400FFFFFFFF0C00000001000000808D5B0099
:1012E40000127A00000000002F000000030000003C
:1012F400FFFFFFFF0C0000000100000000127A0055
:10130400001BB700000000001700000002000000EE
:10131400FFFFFFFF0C00000001000000001BB700EE
:101324000024F400010000002F000000020000006F
:10133400FFFFFFFF0C000000010000000024F40088
:1013440000366E01010000001700000001000000DB
:10135400FFFFFFFF0C0000000100000000366E01DB
:1013640080C3C901030000002F0000000100000039
:10137400FFFFFFFF0C0000000100000080C3C90153
:101384000048E801030000002F00000001000000F5
:10139400FFFFFFFF0E00000001000000808D5B00D6
:1013A400B6A1680000000000370000000300000040
:1013B400FFFFFFFF0E00000001000000B7A168005E
:1013C400001BB700000000001B000000020000002A
:1013D400FFFFFFFF0E00000001000000001BB7002C
:1013E4006D43D1000100000037000000020000003E
:1013F400FFFFFFFF0E000000010000006E43D1005C
:1014040000366E01010000001B0000000100000016
:10141400FFFFFFFF0E0000000100000000366E0118
:10142400DB86A20103000000370000000100000079
:10143400FFFFFFFF1000000001000000808D5B0033
:10144400001BB700000000001F00000002000000A5
:10145400FFFFFFFF1000000001000000001BB700A9
:1014640000366E01010000001F00000001000000B2
:10147400FFFFFFFF1200000001000000808D5B00F1
:10148400AAC2A20000000000230000000200000025
:10149400FFFFFFFF1200000001000000ABC2A2002A
:1014A400001BB70000000000110000000100000054
:1014B400FFFFFFFF1200000001000000001BB70047
:1014C40055854501010000002300000001000000D3
:1014D400FFFFFFFF1400000001000000808D5B008F
:1014E400007C9200000000002700000002000000C1
:1014F400FFFFFFFF1400000001000000007C9200C9
:10150400001BB700000000001300000001000000F1
:10151400FFFFFFFF1400000001000000001BB700E4
:1015240000F8240101000000270000000100000071
:10153400FFFFFFFF1600000001000000808D5B002C
:10154400E82A8500000000002B00000002000000D3
:10155400FFFFFFFF1600000001000000E92A8500DC
:10156400001BB7000000000015000000010000008F
:10157400FFFFFFFF1600000001000000001BB70082
:10158400D1550A01010000002B00000001000000F9
:10159400FFFFFFFF1800000001000000808D5B00CA
:1015A40000127A00000000002F000000020000007A
:1015B400FFFFFFFF180000000100000000127A0086
:1015C400001BB7000000000017000000010000002D
:1015D400FFFFFFFF1800000001000000001BB70020
:1015E4000024F400010000002F00000001000000AE
:1015F400FFFFFFFF1A00000001000000808D5B0068
:1016040027AE70000000000033000000020000005C
:10161400FFFFFFFF1A0000000100000028AE700069
:10162400001BB700000000001900000001000000CA
:10163400FFFFFFFF1A00000001000000001BB700BD
:101644006658E100010000003300000001000000C2
:10165400FFFFFFFF1C00000001000000808D5B0005
:10166400B6A168000000000037000000020000007E
:10167400FFFFFFFF1C00000001000000B7A168008D
:10168400001BB700000000001B0000000100000068
:10169400FFFFFFFF1C00000001000000001BB7005B
:1016A4006D43D1000100000037000000010000007C
:1016B400FFFFFFFF1E00000001000000808D5B00A3
:1016C40000A86100000000003B00000002000000D0
:1016D400FFFFFFFF1E0000000100000000A86100E2
:1016E400001BB700000000001D0000000100000006
:1016F400FFFFFFFF1E00000001000000001BB700F9
:101704000050C300010000003B0000000100000085
:10171400FFFFFFFF2000000001000000808D5B0040
:10172400001BB700000000001F00000001000000C3
:10173400FFFFFFFF4C070120EC070120340B0120C1
:0417440000000000A1
:0817480024070120880C012098
:101750000000000000000000000000000000000089
:101760000000000000000000000000000000000079
:101770000000000000000000000000000000000069
:101780000000000000000000000000000000000059
:101790000000000000000000000000000000000049
:1017A0000000000000000000000000000000000039
:1017B000D80000800000000000000000D800008079
:1017C0000000000000000000D800008000000000C1
:1017D00000000000D80000800000000000000000B1
:1017E000C00000800000000000000000C800008071
:1017F00000000000000000003C1701200000000075
:10180000000000000000000000000080D000008008
:101810007E040120020501207E050120F205012041
:10182000C00C0120EE0C0120520E0120700E012090
:0400000520010000D6
:00000001FF
